:100000000C9463000C948B000C948B000C948B006C
:100010000C948B000C948B000C948B000C948B0034
:100020000C948B000C948B000C948B000C94F205B8
:100030000C948B000C948B000C948B000C948B0014
:100040000C948D040C948B000C945B040C9435047C
:100050000C948B000C948B000C948B000C948B00F4
:100060000C94D7040C948B0000000000240027009F
:100070002A0000000000250028002B0000000000DE
:1000800023002600290004040404040404040202DA
:100090000202020203030303030301020408102007
:1000A0004080010204081020010204081020000012
:1000B0000008000201000003040700000000000027
:1000C0000000F206010911241FBECFEFD8E0DEBF09
:1000D000CDBF11E0A0E0B1E0E8E8F7E102C0059093
:1000E0000D92AA33B107D9F722E0AAE3B1E001C02B
:1000F0001D92A639B207E1F710E0C2E6D0E004C0D5
:100100002197FE010E94BF09C136D107C9F70E949D
:1001100032070C94B70B0C940000AF92BF92CF92B1
:10012000DF92EF92FF920F931F93CF93DF936C01B7
:100130007B018B01040F151FEB015E01AE18BF0898
:10014000C017D10759F06991D601ED91FC9101904A
:10015000F081E02DC6010995892B79F7C501DF9162
:10016000CF911F910F91FF90EF90DF90CF90BF90B4
:10017000AF900895FC01538D448D252F30E0842FDE
:1001800090E0821B930B541710F0CF9608950197BF
:100190000895FC01918D828D981761F0A28DAE0FAC
:1001A000BF2FB11D5D968C91928D9F5F9F73928F33
:1001B00090E008958FEF9FEF0895FC01918D828D5F
:1001C000981731F0828DE80FF11D858D90E008952C
:1001D0008FEF9FEF0895FC01918D228D892F90E084
:1001E000805C9F4F821B91098F739927089580EE41
:1001F00091E00E94EB0021E0892B09F420E0822F9E
:10020000089580E090E0892B29F00E94F700811189
:100210000C9400000895FC01A48DA80FB92FB11D06
:10022000A35ABF4F2C91848D90E001968F7399272C
:10023000848FA689B7892C93A089B1898C9183700A
:1002400080648C93938D848D981306C00288F38903
:10025000E02D80818F7D80830895EF92FF920F9330
:100260001F93CF93DF93EC0181E0888F9B8D8C8D62
:1002700098131AC0E889F989808185FF15C09FB756
:10028000F894EE89FF896083E889F9898081837019
:10029000806480839FBF81E090E0DF91CF911F91C8
:1002A0000F91FF90EF900895F62E0B8D10E00F5FE9
:1002B0001F4F0F731127E02E8C8D8E110CC00FB6BF
:1002C00007FCFACFE889F989808185FFF5CFCE0157
:1002D0000E940B01F1CFEB8DEC0FFD2FF11DE35AC6
:1002E000FF4FF0829FB7F8940B8FEA89FB898081DA
:1002F0008062CFCFCF93DF93EC01888D8823B9F054
:10030000AA89BB89E889F9898C9185FD03C0808120
:1003100086FD0DC00FB607FCF7CF8C9185FFF2CF9D
:10032000808185FFEDCFCE010E940B01E9CFDF91E7
:10033000CF910895833081F028F4813099F0823094
:10034000A9F008958730A9F08830C9F08430B1F45D
:10035000809180008F7D03C0809180008F77809393
:100360008000089584B58F7784BD089584B58F7D0E
:10037000FBCF8091B0008F778093B000089580917B
:10038000B0008F7DF9CFCF93DF93282F30E0F901B4
:10039000E255FF4F8491F901E656FF4FD491F901E0
:1003A000EA57FF4FC491CC23A1F081110E949A011A
:1003B000EC2FF0E0EE0FFF1FE458FF4FA591B49132
:1003C000EC91ED2381E090E009F480E0DF91CF91A2
:1003D000089580E090E0FACF1F93CF93DF93282F0A
:1003E00030E0F901E255FF4F8491F901E656FF4FE5
:1003F000D491F901EA57FF4FC491CC23A9F0162FED
:1004000081110E949A01EC2FF0E0EE0FFF1FEE58D1
:10041000FF4FA591B4918FB7F894EC91111108C0DA
:10042000D095DE23DC938FBFDF91CF911F9108958C
:10043000DE2BF8CFCF93DF9390E0FC01E656FF4F21
:1004400024918A579F4FFC0184918823D1F090E03A
:10045000880F991FFC01E859FF4FA591B491FC0149
:10046000EE58FF4FC591D49161110EC09FB7F8941B
:100470008C91E22FE0958E238C932881E223E883F0
:100480009FBFDF91CF9108958FB7F894EC91E22B45
:10049000EC938FBFF6CF85ED8093BC008091BC00BC
:1004A00084FDFCCF1092A501089520918101260FB3
:1004B0003327331F21323105ECF42091A501FC01D3
:1004C00090E080E0243069F082E00895A0918101FD
:1004D0002191AC014F595E4FA40FB52FB11D2C9344
:1004E0000196861798F380918101680F60938101CE
:1004F00080E0089581E0089508958FEF9FEF0895BB
:100500008FEF9FEF08958091600190E09195819524
:1005100091090895CF93DF93CB01EA01642F0E94E4
:100520005502CE01DF91CF910895CF93DF931F92B3
:10053000CDB7DEB7698361E0CE0101960E94550216
:1005400081E090E00F90DF91CF910895CF92DF92FC
:10055000EF92FF92CF93DF93EC01603282E0780755
:10056000CCF5653B710514F064EB70E0898128E8F7
:1005700030E0281B310987FD3395220F331F220FEE
:10058000331F6901330FEE08FF088A8128E532E046
:10059000281B310987FD3395220F331F220F331F8C
:1005A000032E000C440B550B2C193D094E095F0915
:1005B000DB0177FF02C0B0E0A0E00E943C0924EB21
:1005C00030E040E050E00E941209C20ED31EE41E4B
:1005D000F51EB601E881EC3070F5298188E890E0DD
:1005E000821B910927FD9395880F991F880F991FEA
:1005F000681779077CF02A8188E592E0821B9109CF
:1006000027FD9395880F991F880F991F6817790701
:100610000CF4CB010297880F991F4FB7F8942E2F37
:1006200030E0F901EE0FFF1FE20FF31FE45CFE4F15
:10063000928381834FBFDF91CF91FF90EF90DF9046
:10064000CF9008951F93CF93DF93EC01162F8881ED
:100650008C3008F04EC061E0812F0E941A02888120
:10066000282F30E0F901EE0FFF1FE20FF31FE45CCB
:10067000FE4F1F736081607C612B608319821A8238
:100680002CE0622F0E94AC09829FB001112430E05F
:1006900020E0AB01420F531FFA01EE0FFF1FE40FE2
:1006A000F51FE45CFE4F908196FD16C02F5F3F4F13
:1006B0002C30310571F781110FC01092800082E05B
:1006C000809381001092850010928400B19A8091ED
:1006D0006F00826080936F00E8818E2F90E0FC01B4
:1006E000EE0FFF1FE80FF91FE45CFE4F808180646E
:1006F00080838881DF91CF911F91089590E080E001
:1007000008958F929F92AF92BF920F931F93CF93B2
:10071000DF93CDB7DEB7A1970FB6F894DEBF0FBE5B
:10072000CDBF19A2423008F44AE08E010F5D1F4F81
:10073000842E912CB12CA12CA50194010E947B093F
:10074000E62FB901CA01EA3044F5E05DD801EE9325
:100750008D01232B242B252B79F790E080E0109737
:1007600069F0FD0101900020E9F73197AF014A1BC4
:100770005B0BBD0180EE91E00E948D00A1960FB64B
:10078000F894DEBF0FBECDBFDF91CF911F910F91C7
:10079000BF90AF909F908F900895E95CD7CF42E0D3
:1007A00050E068E171E080EE91E00C948D000F93D1
:1007B0001F93CF93DF93EC0188819981009759F0C3
:1007C0002A813B812617370730F081E0DF91CF91F6
:1007D0001F910F9108958B016F5F7F4F0E94EA0A6E
:1007E000009759F0998388831B830A832C813D816C
:1007F000232B59F7FC011082E8CF80E0E7CFEF927E
:10080000FF920F931F93CF93DF93EC017B01FB01CA
:1008100001900020E9F731978F01061B170BB801F3
:100820000E94D70328813981811113C02115310518
:1008300019F0C9010E94610A198218821D821C8266
:100840001B821A82DF91CF911F910F91FF90EF9041
:1008500008951D830C83B701C901DF91CF911F91CA
:100860000F91FF90EF900C94B00B1F920F920FB668
:100870000F9211242F933F934F935F936F937F9326
:100880008F939F93AF93BF93EF93FF9380EE91E08D
:100890000E940B01FF91EF91BF91AF919F918F91BA
:1008A0007F916F915F914F913F912F910F900FBE6C
:1008B0000F901F9018951F920F920FB60F92112450
:1008C0002F938F939F93EF93FF93E091F001F0911B
:1008D000F1018081E091F601F091F70182FD1BC0EA
:1008E00090818091F9018F5F8F732091FA018217B7
:1008F00041F0E091F901F0E0E052FE4F958F8093D6
:10090000F901FF91EF919F918F912F910F900FBE61
:100910000F901F9018958081F4CF1F920F920FB601
:100920000F9211242F933F938F939F93AF93BF9375
:100930008091D0019091D101A091D201B091D301C9
:100940003091CF0123E0230F2D3758F50196A11DDB
:10095000B11D2093CF018093D0019093D101A0933A
:10096000D201B093D3018091CB019091CC01A091A1
:10097000CD01B091CE010196A11DB11D8093CB0197
:100980009093CC01A093CD01B093CE01BF91AF91D4
:100990009F918F913F912F910F900FBE0F901F90BD
:1009A000189526E8230F0296A11DB11DD2CF1F92E4
:1009B0000F920FB60F9211242F933F934F935F9393
:1009C0006F937F938F939F93AF93BF93EF93FF9317
:1009D0008091B900887F803609F44AC0F0F58832EA
:1009E00009F4A5C018F5803109F499C0B8F488233A
:1009F00009F4F5C0883009F492C0FF91EF91BF91DE
:100A0000AF919F918F917F916F915F914F913F91A6
:100A10002F910F900FBE0F901F901895883109F4F9
:100A200086C0803251F78093A40114C0803409F449
:100A30009BC040F48033B9F38833F9F68093A40166
:100A400085ECAEC0803509F483C0883509F494C0C4
:100A5000883499F60E944B02D0CF883909F48AC0B5
:100A600038F5883729F050F4883611F0803729F6A8
:100A700083E08093A5011092A30155C0883809F442
:100A800079C0803919F0803809F0B7CF8091A3017F
:100A9000803208F06FC0E091A30181E08E0F809357
:100AA000A3018091BB00F0E0ED57FE4F80833BC077
:100AB000803B39F0D0F4803A09F477C0883A09F0E5
:100AC0009CCF84E08093A501109282011092810155
:100AD000F0E0E0E009958091810181110FC081E093
:100AE000809381011092610109C0803C09F4A8CF74
:100AF000883C09F4A5CF883B09F07FCFE0918201C3
:100B000081E08E0F80938201F0E0EF59FE4F8081EB
:100B10008093BB00909182018091810129C08091D6
:100B2000CA018093BB0085EC8093BC0066CF909196
:100B3000C9018091C801981758F5E091C90181E079
:100B40008E0F8093C901F0E0E855FE4F8081E9CF18
:100B5000E091C90181E08E0F8093C9018091BB00B3
:100B6000F0E0E855FE4F80839091C9018091C80163
:100B70009817C8F285E8D8CFE091C90181E08E0FBF
:100B80008093C9018091BB00F0E0E855FE4F80835F
:100B90008091A70181115ECF81E08093A60184EA54
:100BA0008093BC001092A50128CF85EC8093BC00F7
:100BB0001092A5018091A301803230F4E091A3014D
:100BC000F0E0ED57FE4F10826091A30170E083E8E2
:100BD00091E0F0E0E0E009951092A3010ECF1092B1
:100BE000A40138CF1F920F920FB60F9211242F93AA
:100BF0003F934F935F936F937F938F939F93AF93A5
:100C0000BF93CF93DF93EF93FF9380913A01C0910D
:100C10003B01D0E087FF24C0109285001092840031
:100C200080913A018F5F80933A0180913A01082EBA
:100C3000000C990B8C179D0724F480913A018C309D
:100C4000C4F18091840090918500049680349C4981
:100C500008F47AC08091840090918500049676C053
:100C600080913A01082E000C990B8C179D07C4F651
:100C7000E0913A018E2FEE0F990BFC01EE0FFF1F52
:100C8000E80FF91FE45CFE4F808186FFC9CFE09139
:100C90003A018E2FEE0F990BFC01EE0FFF1FE80FAC
:100CA000F91FE45CFE4F808160E08F730E94EC01CD
:100CB000B7CF2091840030918500E0913A018E2FCA
:100CC000EE0F990BFC01EE0FFF1FE80FF91FE45C1C
:100CD000FE4F81819281820F931F909389008093B0
:100CE0008800E0913A018E2FEE0F990BFC01EE0F78
:100CF000FF1FE80FF91FE45CFE4F808186FF11C0E3
:100D0000E0913A018E2FEE0F990BFC01EE0FFF1FC1
:100D1000E80FF91FE45CFE4F808161E08F730E9451
:100D2000EC01FF91EF91DF91CF91BF91AF919F9136
:100D30008F917F916F915F914F913F912F910F9084
:100D40000FBE0F901F90189580E49CE99093890046
:100D5000809388008FEF80933A01E3CFFC0190915C
:100D60003B019C3098F481E0890F80933B01908394
:100D7000892F90E0FC01EE0FFF1FE80FF91FE45CE4
:100D8000FE4F88EB9BE09283818308958FEF8083F1
:100D90000895CF93DF93EC01198218821B821A8287
:100DA0001D821C8270E060E00E94D7032881398197
:100DB00081110FC02115310519F0C9010E94610A86
:100DC000198218821D821C821B821A82DF91CF91A8
:100DD00008951D821C826AE171E0C901DF91CF9103
:100DE0000C94B00BE0EEF1E01382128288EE93E0F7
:100DF000A0E0B0E084839583A683B7838AE091E086
:100E00009183808385EC90E09587848784EC90E0E3
:100E10009787868780EC90E0918B808B81EC90E0C7
:100E2000938B828B82EC90E0958B848B86EC90E0A8
:100E3000978B868B118E128E138E148E8FE892E014
:100E40000E94AE068CE892E00E94AE0686E892E030
:100E50000E94C90683E892E00E94AE068DE792E008
:100E60000C94C906789484B5826084BD84B5816091
:100E700084BD85B5826085BD85B5816085BD809165
:100E80006E00816080936E001092810080918100DD
:100E900082608093810080918100816080938100D5
:100EA000809180008160809380008091B100846097
:100EB0008093B1008091B00081608093B0008091F8
:100EC0007A00846080937A0080917A0082608093B7
:100ED0007A0080917A00816080937A0080917A0014
:100EE000806880937A001092C10061E08DE00E94DA
:100EF0001A02E091F001F091F10182E08083E0912B
:100F0000EC01F091ED011082E091EE01F091EF0122
:100F10008FEC80831092F801E091F401F091F501DB
:100F200086E08083E091F201F091F301808180619D
:100F30008083E091F201F091F301808188608083E9
:100F4000E091F201F091F301808180688083E0916B
:100F5000F201F091F30180818F7D808369E070E080
:100F60008FE892E00E9422036AE070E08CE892E051
:100F70000E9422036BE070E083E892E00E9422036B
:100F800060E084E00E941A0260E085E00E941A029C
:100F900060E086E00E941A0260E087E00E941A0288
:100FA00084E00E94C3019093D7018093D60186E02C
:100FB0000E94C3019093DD018093DC0180E4782ED0
:100FC00088248A9493E0992EA12CB12C20E0C22E83
:100FD00020E0D22E34EBE32EF12C84E00E94C301FA
:100FE0008C019093D9018093D8018091D601909182
:100FF000D7010817190709F44FC085E00E94C30103
:10100000C091D401D091D5016BE171E008171907A7
:1010100009F473C086E892E00E94FF032197D7FD90
:1010200005C0D093D501C093D40104C01092D5015E
:101030001092D40140918A0250918B0260918602F5
:101040007091870280EE91E00E948D002090D40183
:101050003090D501032C000C440855084AE0C20129
:10106000B10157FE0DC06DE280EE91E00E942D01AE
:1010700066277727CB0162197309840995094AE02D
:101080000E9481030E94CF036091D4017091D50129
:101090008CE892E00E94A6028091D8019091D9013B
:1010A0009093D7018093D60186E00E94C3018C0102
:1010B0009093DF018093DE018091DC019091DD014E
:1010C0000817190709F45DC087E00E94C301C091A9
:1010D000DA01D091DB0169E271E00817190709F420
:1010E00082C08DE792E00E94FF032197D7FD13C0D5
:1010F000D093DB01C093DA0112C086E892E00E942F
:10110000FF032196C53BD1050CF48BCFF092D5019E
:10111000E092D4018FCF1092DB011092DA0140915E
:1011200081025091820260917D0270917E0280EE78
:1011300091E00E948D002090DA013090DB01032CB9
:10114000000C440855084AE0C201B10157FE0DC029
:101150006DE280EE91E00E942D0166277727CB019A
:1011600062197309840995094AE00E9481030E946B
:10117000CF036091DA017091DB0183E892E00E9475
:10118000A6028091DE019091DF019093DD018093B2
:10119000DC0170927C0080917A00806480937A00F8
:1011A00080917A0086FDFCCF80917800A091790033
:1011B000BA2FA82F24EB30E00E94B809A5019401B2
:1011C0000E941209B9018FE892E00E94A602C114A0
:1011D000D10409F402CF0E94F700882309F4FDCE60
:1011E0000E940000FACE8DE792E00E94FF03219654
:1011F000C53BD1050CF47CCFF092DB01E092DA0123
:101200008ECF80917D0290917E02009711F00E9416
:10121000610A8091860290918702009711F00C94E8
:10122000610A0895052E97FB1EF400940E94290977
:1012300057FD07D00E947B0907FC03D04EF40C94A5
:10124000290950954095309521953F4F4F4F5F4F5D
:10125000089590958095709561957F4F8F4F9F4F22
:1012600008950E949D09A59F900DB49F900DA49F85
:10127000800D911D11240895B7FF0C9431090E942F
:101280003109821B930B08952F923F924F925F92E8
:101290006F927F928F929F92AF92BF92CF92DF9286
:1012A000EF92FF920F931F93CF93DF93CDB7DEB7EB
:1012B000CA1BDB0B0FB6F894DEBF0FBECDBF09947F
:1012C0002A88398848885F846E847D848C849B84D6
:1012D000AA84B984C884DF80EE80FD800C811B81E4
:1012E000AA81B981CE0FD11D0FB6F894DEBF0FBE13
:1012F000CDBFED010895A1E21A2EAA1BBB1BFD0173
:101300000DC0AA1FBB1FEE1FFF1FA217B307E407E4
:10131000F50720F0A21BB30BE40BF50B661F771F3C
:10132000881F991F1A9469F760957095809590951C
:101330009B01AC01BD01CF010895A29FB001B39FF5
:10134000C001A39F700D811D1124911DB29F700DCE
:10135000811D1124911D0895991B79E004C0991FE6
:10136000961708F0961B881F7A95C9F780950895FF
:101370000E949D09B7FF0895821B930B0895EE0FFD
:10138000FF1F0590F491E02D09940F931F93CF93C5
:10139000DF938230910510F482E090E0E0919402B6
:1013A000F091950230E020E0B0E0A0E0309799F4B1
:1013B0002115310509F44AC0281B390B24303105A9
:1013C000D8F58A819B816115710589F1FB019383B1
:1013D0008283FE0111C0408151810281138148172F
:1013E0005907E0F04817590799F4109761F01296E1
:1013F0000C93129713961C933296CF01DF91CF91E5
:101400001F910F9108950093940210939502F4CFC9
:101410002115310551F04217530738F0A901DB01BE
:101420009A01BD01DF01F801C1CFEF01F9CF90931F
:10143000950280939402CDCFFE01E20FF31F8193BA
:1014400091932250310939832883D7CF209192027A
:1014500030919302232B41F420910201309103013A
:101460003093930220939202209100013091010168
:101470002115310541F42DB73EB74091040150913B
:101480000501241B350BE0919202F0919302E217C3
:10149000F307A0F42E1B3F0B2817390778F0AC0197
:1014A0004E5F5F4F2417350748F04E0F5F1F509374
:1014B000930240939202819391939FCFF0E0E0E0FA
:1014C0009CCFCF93DF930097E9F0FC013297138212
:1014D0001282A0919402B0919502ED0130E020E0DB
:1014E0001097A1F420813181820F931F20919202E5
:1014F000309193022817390709F061C0F0939302E5
:10150000E0939202DF91CF910895EA01CE17DF07B1
:10151000E8F54A815B819E0141155105B1F7E9016A
:10152000FB83EA8349915991C40FD51FEC17FD073E
:1015300061F4808191810296840F951FE90199835E
:101540008883828193819B838A83F0E0E0E0129616
:101550008D919C9113970097B9F52D913C9111971E
:10156000CD010296820F931F209192023091930237
:101570002817390739F6309751F5109295021092D5
:101580009402B0939302A0939202BCCFD383C28300
:1015900040815181840F951FC817D90761F44E5FB0
:1015A0005F4F88819981480F591F518340838A81F9
:1015B0009B81938382832115310509F0B0CFF0938D
:1015C0009502E09394029ECFFD01DC01C0CF13820F
:1015D0001282D7CFB0E0A0E0E0EFFAE00C94460929
:1015E0008C01009751F4CB010E94C5098C01C80100
:1015F000CDB7DEB7E0E10C946209FC01E60FF71FFE
:101600009C0122503109E217F30708F49DC0D9016B
:10161000CD91DC911197C617D70798F0C530D10549
:1016200030F3CE0104978617970708F3C61BD70B34
:101630002297C193D1936D937C93CF010E94610A4D
:10164000D6CF5B01AC1ABD0A4C018C0E9D1EA09139
:101650009402B0919502512C412CF12CE12C109761
:1016600031F580919202909193028815990509F0C5
:101670005CC04616570608F058C080910001909152
:101680000101009741F48DB79EB74091040150913C
:101690000501841B950BE817F90708F055C0F09376
:1016A0009302E0939202F90171836083A0CF8D9140
:1016B0009C91119712966C90129713967C901397A9
:1016C000A815B90559F56C0142E0C40ED11CCA1425
:1016D000DB0420F1AC014A195B09DA011296159777
:1016E00080F06282738251834083D9016D937C9331
:1016F000E114F10471F0D7011396FC93EE93129765
:1017000076CF22968C0F9D1FF90191838083F30180
:10171000EFCFF0939502E093940269CF48165906F3
:1017200008F42C017D01D3019ACFCB010E94C50999
:101730007C01009749F0AE01B8010E94A70BC801D7
:101740000E94610A870153CF10E000E050CFFB01F7
:10175000DC0102C001900D9241505040D8F708952D
:10176000FB01DC0101900D920020E1F7089510E0EB
:10177000C2E6D0E004C0FE010E94BF092196C33634
:08178000D107C9F7F894FFCF6F
:10178800000096028000000000002D018D00BA00C4
:101798007A01EB00C900DD000D0A00436F72652075
:1017A80076616C7565203A2000436F72652076611A
:0A17B8006C75655F32203A200000D6
:00000001FF
