:100000000C9462000C948A000C948A000C948A0070
:100010000C948A000C948A000C948A000C948A0038
:100020000C948A000C948A000C948A000C94340579
:100030000C948A000C948A000C948A000C948A0018
:100040000C94EA040C948A000C94B8040C94920466
:100050000C948A000C948A000C948A000C948A00F8
:100060000C94F0050C948A00000000002400270086
:100070002A0000000000250028002B0000000000DE
:1000800023002600290004040404040404040202DA
:100090000202020203030303030301020408102007
:1000A0004080010204081020010204081020000012
:1000B0000008000201000003040700000000000027
:1000C00000000F0711241FBECFEFD8E0DEBFCDBF69
:1000D00011E0A0E0B1E0EAE4F5E102C005900D9284
:1000E000AE33B107D9F722E0AEE3B1E001C01D9213
:1000F000A03EB207E1F710E0C2E6D0E004C02197CD
:10010000FE010E949D0AC136D107C9F70E949507DA
:100110000C94A30A0C94000008950895AF92BF9226
:10012000CF92DF92EF92FF920F931F93CF93DF93C3
:100130006C017B018B01040F151FEB015E01AE18F2
:10014000BF08C017D10759F06991D601ED91FC9114
:100150000190F081E02DC6010995892B79F7C50141
:10016000DF91CF911F910F91FF90EF90DF90CF9093
:10017000BF90AF900895FC01538D448D252F30E042
:10018000842F90E0821B930B541710F0CF960895A4
:1001900001970895FC01918D828D981761F0A28DD1
:1001A000AE0FBF2FB11D5D968C91928D9F5F9F7397
:1001B000928F90E008958FEF9FEF0895FC01918D4D
:1001C000828D981731F0828DE80FF11D858D90E0BA
:1001D00008958FEF9FEF0895FC01918D228D892F57
:1001E00090E0805C9F4F821B91098F73992708953F
:1001F00082E092E00E94EC0021E0892B09F420E0EB
:10020000822F089580E090E0892B29F00E94F80069
:1002100081110C9400000895FC01A48DA80FB92F42
:10022000B11DA35ABF4F2C91848D90E001968F731E
:100230009927848FA689B7892C93A089B1898C913D
:10024000837080648C93938D848D981306C002888C
:10025000F389E02D80818F7D80830895EF92FF9256
:100260000F931F93CF93DF93EC0181E0888F9B8DD9
:100270008C8D98131AC0E889F989808185FF15C093
:100280009FB7F894EE89FF896083E889F9898081B6
:100290008370806480839FBF81E090E0DF91CF9185
:1002A0001F910F91FF90EF900895F62E0B8D10E0A7
:1002B0000F5F1F4F0F731127E02E8C8D8E110CC016
:1002C0000FB607FCFACFE889F989808185FFF5CF61
:1002D000CE010E940C01F1CFEB8DEC0FFD2FF11D33
:1002E000E35AFF4FF0829FB7F8940B8FEA89FB899E
:1002F00080818062CFCFCF93DF93EC01888D8823FC
:10030000B9F0AA89BB89E889F9898C9185FD03C078
:10031000808186FD0DC00FB607FCF7CF8C9185FF5D
:10032000F2CF808185FFEDCFCE010E940C01E9CF95
:10033000DF91CF910895833081F028F4813099F0D6
:100340008230A9F008958730A9F08830C9F0843050
:10035000B1F4809180008F7D03C0809180008F7701
:1003600080938000089584B58F7784BD089584B507
:100370008F7DFBCF8091B0008F778093B000089580
:100380008091B0008F7DF9CFCF93DF93282F30E09D
:10039000F901E255FF4F8491F901E656FF4FD491E0
:1003A000F901EA57FF4FC491CC23A1F081110E94BB
:1003B0009B01EC2FF0E0EE0FFF1FE458FF4FA591DB
:1003C000B491EC91ED2381E090E009F480E0DF91BD
:1003D000CF91089580E090E0FACF1F93CF93DF9301
:1003E000282F30E0F901E255FF4F8491F901E656DC
:1003F000FF4FD491F901EA57FF4FC491CC23A9F0E4
:10040000162F81110E949B01EC2FF0E0EE0FFF1FD1
:10041000EE58FF4FA591B4918FB7F894EC9111115C
:1004200008C0D095DE23DC938FBFDF91CF911F9161
:100430000895DE2BF8CFCF93DF9390E0FC01E656D2
:10044000FF4F24918A579F4FFC0184918823D1F05C
:1004500090E0880F991FFC01E859FF4FA591B491D6
:10046000FC01EE58FF4FC591D49161110EC09FB7AA
:10047000F8948C91E22FE0958E238C932881E223CF
:10048000E8839FBFDF91CF9108958FB7F894EC91E7
:10049000E22BEC938FBFF6CF3FB7F8948091ED013C
:1004A0009091EE01A091EF01B091F00126B5A89BCB
:1004B00005C02F3F19F00196A11DB11D3FBFBA2FF6
:1004C000A92F982F8827BC01CD01620F711D811DB6
:1004D000911D42E0660F771F881F991F4A95D1F73B
:1004E00008958F929F92AF92BF92CF92DF92EF9238
:1004F000FF924B015C010E944C026B017C010E9447
:100500004C026C197D098E099F09683E7340810574
:100510009105A8F321E0821A9108A108B10888EE9C
:10052000C80E83E0D81EE11CF11C81149104A104C3
:10053000B10429F7FF90EF90DF90CF90BF90AF907C
:100540009F908F90089585ED8093BC008091BC00B2
:1005500084FDFCCF1092F70108952091A001260F91
:100560003327331F21323105ECF42091F701FC01D0
:1005700090E080E0243069F082E00895A091A0012D
:100580002191AC0140585E4FA40FB52FB11D2C93A3
:100590000196861798F38091A001680F6093A001DF
:1005A00080E0089581E008950895E091FB01809135
:1005B000FA01E81730F4F0E0E05AFE4F808190E055
:1005C00008958FEF9FEF08959091FB018091FA01BC
:1005D0002FEF3FEF981748F4E92FF0E0E05AFE4F75
:1005E000208130E09F5F9093FB01C90108958091C5
:1005F000FA019091FB01891B990B0895CF92DF922C
:10060000EF92FF920F931F93CF93DF937C01CB0167
:100610008A0120915F01222389F0EB016B01C40E56
:10062000D51ECC15DD0569F06991D701ED91FC91DE
:100630000190F081E02DC7010995F3CF642F0E944E
:10064000AD02C801DF91CF911F910F91FF90EF9004
:10065000DF90CF900895CF93DF931F92CDB7DEB791
:10066000698320915F012223F9F02091F801203263
:1006700058F021E030E0FC013383228390E080E0F9
:100680000F90DF91CF9108958091F901E82FF0E06C
:10069000E15CFE4F998190838F5F8093F901809395
:1006A000F80181E090E0ECCF61E0CE0101960E947C
:1006B000AD02F7CFCF93FC01C48121E020935F010D
:1006C000C0933E011092F9011092F8018485682BC5
:1006D0008FE992E00E942B039091F801913208F08B
:1006E0003FC08091F7018111FCCF82E08093F70138
:1006F00081E08093F6018FEF8093C3011092E501B2
:100700009093E401AFE3B1E0E4ECF1E080E0981312
:100710002FC01092E6018091E601CC0FC82BC09348
:10072000E6018091F501813039F51092F501809153
:10073000E6018093BB008091BC0083FDF8CF85EC7F
:100740008093BC008091F7018230E1F38091C30176
:100750008F3F31F08091C301803211F08091C3014D
:100760001092F9011092F80110925F01CF91089553
:100770002D9121938F5FCBCF85EEE2CF089590E04E
:1007800080E008950F931F93CF938C01C62F0E9492
:100790005A036C2F6460C8010E945A036C2F6B7F50
:1007A000C8010E945A0383EC90E00197F1F7CF91C2
:1007B0001F910F9108950F931F93CF93DF938C0197
:1007C000D62FC42F607F642B0E94C20380E1D89F84
:1007D000B00111246C2BC801DF91CF911F910F91B3
:1007E0000C94C20340E060E880ED92E00C94DB03DF
:1007F00040E061E080ED92E00E94DB038BE39FE14B
:100800000197F1F78091D90281110C94F2030895B8
:1008100041E00E94DB0381E090E00895FB0101903C
:100820000020E9F73197AF01461B570BDC01ED9132
:10083000FC910280F381E02D09948F929F92AF92F8
:10084000BF92EF92FF920F931F93CF93DF93CDB799
:10085000DEB7A1970FB6F894DEBF0FBECDBF7C0107
:10086000FA01CB0119A2223008F42AE08E010F5DB3
:100870001F4F822E912CB12CA12CBF01A5019401F8
:100880000E94600AF901CA016A300CF5605DD80166
:100890006E938D01232B242B252B79F790E080E09C
:1008A000109721F0BD01C7010E940E04A1960FB65A
:1008B000F894DEBF0FBECDBFDF91CF911F910F9196
:1008C000FF90EF90BF90AF909F908F900895695CDC
:1008D000DECFCF92DF92EF92FF920F931F93CF93D1
:1008E000DF93EC016A017B01E881F9810190F081DD
:1008F000E02D6DE209958C0144275527BA014C196A
:100900005D096E097F092AE0CE010E941D04800F57
:10091000911FDF91CF911F910F91FF90EF90DF908A
:10092000CF9008951F920F920FB60F9211242F931C
:100930003F934F935F936F937F938F939F93AF9367
:10094000BF93EF93FF9382E092E00E940C01FF912E
:10095000EF91BF91AF919F918F917F916F915F9137
:100960004F913F912F910F900FBE0F901F901895B0
:100970001F920F920FB60F9211242F938F939F9374
:10098000EF93FF93E0911202F09113028081E091C6
:100990001802F091190282FD1BC0908180911B0208
:1009A0008F5F8F7320911C02821741F0E0911B0230
:1009B000F0E0EE5FFD4F958F80931B02FF91EF916A
:1009C0009F918F912F910F900FBE0F901F901895B0
:1009D0008081F4CF1F920F920FB60F9211242F93A4
:1009E0003F938F939F93AF93BF938091E901909131
:1009F000EA01A091EB01B091EC013091E80123E014
:100A0000230F2D3758F50196A11DB11D2093E80144
:100A10008093E9019093EA01A093EB01B093EC017C
:100A20008091ED019091EE01A091EF01B091F00164
:100A30000196A11DB11D8093ED019093EE01A0934D
:100A4000EF01B093F001BF91AF919F918F913F91D2
:100A50002F910F900FBE0F901F90189526E8230F2F
:100A60000296A11DB11DD2CF1F920F920FB60F9209
:100A700011242F933F934F935F936F937F938F93A3
:100A80009F93AF93BF93CF93DF93EF93FF938091A7
:100A9000E701C091CF02D0E087FF24C0109285000B
:100AA000109284008091E7018F5F8093E70180912D
:100AB000E701082E000C990B8C179D0724F48091F8
:100AC000E7018C30C4F180918400909185000496F8
:100AD00080349C4908F47AC080918400909185000C
:100AE000049676C08091E701082E000C990B8C17B4
:100AF0009D07C4F6E091E7018E2FEE0F990BFC01E4
:100B0000EE0FFF1FE80FF91FE555FD4F808186FFAF
:100B1000C9CFE091E7018E2FEE0F990BFC01EE0F8C
:100B2000FF1FE80FF91FE555FD4F808160E08F73CF
:100B30000E94ED01B7CF2091840030918500E091B3
:100B4000E7018E2FEE0F990BFC01EE0FFF1FE80F50
:100B5000F91FE555FD4F81819281820F931F90937C
:100B6000890080938800E091E7018E2FEE0F990BAA
:100B7000FC01EE0FFF1FE80FF91FE555FD4F8081C7
:100B800086FF11C0E091E7018E2FEE0F990BFC015B
:100B9000EE0FFF1FE80FF91FE555FD4F808161E063
:100BA0008F730E94ED01FF91EF91DF91CF91BF9183
:100BB000AF919F918F917F916F915F914F913F91F5
:100BC0002F910F900FBE0F901F90189580E49CE915
:100BD00090938900809388008FEF8093E701E3CFA3
:100BE0001F920F920FB60F9211242F933F934F93A2
:100BF0005F936F937F938F939F93AF93BF93EF9385
:100C0000FF938091B900887F803609F44AC0F0F5DF
:100C1000883209F4A7C018F5803109F49BC0B8F4F4
:100C2000882309F4F9C0883009F494C0FF91EF914A
:100C3000BF91AF919F918F917F916F915F914F91F4
:100C40003F912F910F900FBE0F901F9018958831F4
:100C500009F488C0803251F78093C30114C08034F6
:100C600009F49DC040F48033B9F38833F9F68093DA
:100C7000C30185ECB0C0803509F485C0883509F41E
:100C800096C0883499F60E94A302D0CF883909F41F
:100C90008CC038F5883729F050F4883611F0803749
:100CA00029F683E08093F7011092C20157C088387B
:100CB00009F47BC0803919F0803809F0B7CF8091F2
:100CC000C201803208F071C0E091C20181E08E0F54
:100CD0008093C2018091BB00F0E0EE55FE4F80830F
:100CE0003DC0803B39F0E0F4803A09F479C0883A9D
:100CF00009F09CCF84E08093F7011092A10110923B
:100D0000A001E091F301F091F40109958091A00117
:100D100081110FC081E08093A0011092800109C071
:100D2000803C09F4A6CF883C09F4A3CF883B09F0A6
:100D30007DCFE091A10181E08E0F8093A101F0E0D1
:100D4000E058FE4F80818093BB009091A10180917B
:100D5000A00129C08091E6018093BB0085EC8093BF
:100D6000BC0064CF9091E5018091E401981758F59B
:100D7000E091E50181E08E0F8093E501F0E0EC5316
:100D8000FE4F8081E9CFE091E50181E08E0F8093F5
:100D9000E5018091BB00F0E0EC53FE4F8083909121
:100DA000E5018091E4019817C8F285E8D8CFE09179
:100DB000E50181E08E0F8093E5018091BB00F0E0BA
:100DC000EC53FE4F80838091F60181115CCF81E06E
:100DD0008093F50184EA8093BC001092F70126CF3E
:100DE00085EC8093BC001092F7018091C2018032A3
:100DF00030F4E091C201F0E0EE55FE4F10826091B8
:100E0000C20170E0E091F101F091F20182EA91E01B
:100E100009951092C2010ACF1092C30134CF1092EB
:100E200005021092040288EE93E0A0E0B0E0809307
:100E3000060290930702A0930802B093090224E0EF
:100E400031E0309303022093020225EC30E030932E
:100E50000F0220930E0224EC30E030931102209315
:100E6000100220EC30E0309313022093120221ECA8
:100E700030E0309315022093140222EC30E03093DE
:100E800017022093160226EC30E0309319022093CB
:100E9000180210921B0210921C0210921D02109256
:100EA0001E021092A2021092A1028093A3029093BC
:100EB000A402A093A502B093A60286E191E09093CC
:100EC000A00280939F028091CF028C3050F591E078
:100ED000980F9093CF028093DD0290E0FC01EE0F1B
:100EE000FF1FE80FF91FE555FD4F88EB9BE092834C
:100EF00081831092D3021092D20288E291E0909303
:100F0000D1028093D0021092D90287E28093D4025A
:100F100080E18093DA0282E08093DB021092DC02AF
:100F200008958FEF8093DD02E4CF789484B58260DA
:100F300084BD84B5816084BD85B5826085BD85B57D
:100F4000816085BD80916E00816080936E001092FB
:100F50008100809181008260809381008091810076
:100F60008160809381008091800081608093800007
:100F70008091B10084608093B1008091B000816065
:100F80008093B00080917A00846080937A00809191
:100F90007A00826080937A0080917A0081608093E9
:100FA0007A0080917A00806880937A001092C10064
:100FB0001092FB011092FA011092F9011092F801BF
:100FC0001092F70181E08093F6011092F50161E043
:100FD00082E10E94ED0161E083E10E94ED018091D8
:100FE000B9008E7F8093B9008091B9008D7F809386
:100FF000B90088E48093B80085E48093BC008CE855
:1010000090E09093F4018093F3018DE890E0909349
:10101000F2018093F1011092D5028091DB028230BF
:1010200018F098E09093D5028093D80262E370E0C4
:1010300080E090E00E9471026091DC0280ED92E01D
:101040000E945A0368EE73E080E090E00E94710213
:1010500060E380ED92E00E94C203CBE4D6E4CE01CF
:101060000197F1F760E380ED92E00E94C2032197BF
:10107000F1F760E380ED92E00E94C20383E592E025
:101080000197F1F760E280ED92E00E94C203609167
:10109000D502606240E080ED92E00E94DB0384E0D4
:1010A0008093D60240E06CE080ED92E00E94DB038A
:1010B0000E94F80382E08093D70240E066E080ED72
:1010C00092E00E94DB0340E062E080ED92E00E944B
:1010D000DB038BE39FE10197F1F788E08093DC026B
:1010E00060E080ED92E00E945A030E94F20360E308
:1010F00071E080ED92E00E940E044091FC0150915D
:10110000FD01052E000C660B770B77FF92C180ED79
:1011100092E00E9469046BE371E080ED92E00E942E
:101120000E0460E08FE00E941B0260E086E00E94F7
:101130001B0260E087E00E941B028091DD028C3080
:1011400008F051C061E089E00E941B028091DD023D
:10115000282F30E0F901EE0FFF1FE20FF31FE555D6
:10116000FD4F9081907C996090831092DE021092E6
:10117000DF022CE0622F0E94910A829FB0011124AD
:1011800030E020E0AB01420F531FFA01EE0FFF1FCA
:10119000E40FF51FE555FD4F908196FD16C02F5FBA
:1011A0003F4F2C30310571F781110FC01092800034
:1011B00082E0809381001092850010928400B19AA1
:1011C00080916F00826080936F00E091DD028E2F2E
:1011D00090E0FC01EE0FFF1FE80FF91FE555FD4FF2
:1011E000808180648083E0911202F091130282E09A
:1011F0008083E0910E02F0910F021082E0911002C4
:10120000F09111028FEC808310921A02E091160285
:10121000F091170286E08083E0911402F0911502AC
:10122000808180618083E0911402F09115028081B9
:1012300088608083E0911402F091150280818068BB
:101240008083E0911402F091150280818F7D80836C
:1012500086E00E94C4019093FF018093FE0108E89C
:1012600010E0A8E5EA2EA2E0FA2EB4EB8B2E912C2A
:10127000A12CB12CC0E0CC2EC0E0DC2E86E00E9478
:10128000C401EC0190930102809300028091FE0161
:101290009091FF01C817D90709F4B7C087E00E94F1
:1012A000C4012091FC013091FD01C817D90709F450
:1012B000C6C02F5F3F4F3093FD012093FC0160E3D8
:1012C00071E082E092E00E940E044091FC01509196
:1012D000FD01052E000C660B770B77FFB3C082E093
:1012E00092E00E9469046BE371E082E092E00E9468
:1012F0000E040E94F80360E371E080ED92E00E942A
:101300000E044091FC015091FD01052E000C660B6E
:10131000770B77FF9DC080ED92E00E946904A09159
:10132000FC01B091FD01A03282E0B807BCF520912C
:10133000DE022801421A510827FD5394440C551C23
:10134000440C551C052C000C660877082091DF0220
:10135000C701821B910927FD93959C01220F331F22
:10136000220F331F032E000C440B550B2419350993
:1013700046095709A53BB10514F0A4EBB0E0B7FF4F
:1013800002C0B0E0A0E00E94580AA50194010E94AA
:101390002E0A420E531E641E751ED201E091DD021C
:1013A000EC3088F52091DE02C801821B910927FDEF
:1013B00093959C01220F331F220F331FA217B307EF
:1013C00084F02091DF02C701821B910927FD9395CC
:1013D0009C01220F331F220F331FA217B3070CF4F7
:1013E0009D0122503109220F331F4FB7F8948E2FE1
:1013F00090E0FC01EE0FFF1FE80FF91FE555FD4FD0
:10140000328321834FBF0E94F203809100029091AA
:1014100001029093FF018093FE01C114D10409F4ED
:101420002DCF0E94F800882309F428CF0E940000E5
:1014300025CF2AE080ED92E00E941D046CCE215061
:10144000310939CF2AE082E092E00E941D044BCF9F
:101450002AE080ED92E00E941D0461CF052E97FBEB
:101460001EF400940E94450A57FD07D00E94600AAE
:1014700007FC03D04EF40C94450A509540953095E6
:1014800021953F4F4F4F5F4F0895909580957095F0
:1014900061957F4F8F4F9F4F08950E94820AA59FAD
:1014A000900DB49F900DA49F800D911D112408955F
:1014B000B7FF0C944D0A0E944D0A821B930B0895AE
:1014C000A1E21A2EAA1BBB1BFD010DC0AA1FBB1F48
:1014D000EE1FFF1FA217B307E407F50720F0A21BBA
:1014E000B30BE40BF50B661F771F881F991F1A9427
:1014F00069F760957095809590959B01AC01BD0151
:10150000CF010895A29FB001B39FC001A39F700DAA
:10151000811D1124911DB29F700D811D1124911DFB
:101520000895991B79E004C0991F961708F0961B3F
:10153000881F7A95C9F780950895EE0FFF1F0590D3
:0A154000F491E02D0994F894FFCF18
:10154A00000000002E018E00BB007B01EC00CA00E7
:10155A00DE00000000002B03FE02BF03D402F702E4
:10156A00E402D5020000000008048E00BF03BE0397
:0E157A00506F736974696F6E3A20000D0A009D
:107E0000112484B714BE81FFF0D085E080938100F7
:107E100082E08093C00088E18093C10086E0809377
:107E2000C20080E18093C4008EE0C9D0259A86E02C
:107E300020E33CEF91E0309385002093840096BBD3
:107E4000B09BFECF1D9AA8958150A9F7CC24DD24C4
:107E500088248394B5E0AB2EA1E19A2EF3E0BF2EE7
:107E6000A2D0813461F49FD0082FAFD0023811F036
:107E7000013811F484E001C083E08DD089C08234E0
:107E800011F484E103C0853419F485E0A6D080C0E4
:107E9000853579F488D0E82EFF2485D0082F10E0AE
:107EA000102F00270E291F29000F111F8ED06801E7
:107EB0006FC0863521F484E090D080E0DECF843638
:107EC00009F040C070D06FD0082F6DD080E0C81688
:107ED00080E7D80618F4F601B7BEE895C0E0D1E017
:107EE00062D089930C17E1F7F0E0CF16F0E7DF06D8
:107EF00018F0F601B7BEE89568D007B600FCFDCFD4
:107F0000A601A0E0B1E02C9130E011968C91119780
:107F100090E0982F8827822B932B1296FA010C0160
:107F200087BEE89511244E5F5F4FF1E0A038BF0790
:107F300051F7F601A7BEE89507B600FCFDCF97BE46
:107F4000E89526C08437B1F42ED02DD0F82E2BD052
:107F50003CD0F601EF2C8F010F5F1F4F84911BD097
:107F6000EA94F801C1F70894C11CD11CFA94CF0C13
:107F7000D11C0EC0853739F428D08EE10CD085E9AC
:107F80000AD08FE07ACF813511F488E018D01DD067
:107F900080E101D065CF982F8091C00085FFFCCF94
:107FA0009093C60008958091C00087FFFCCF809118
:107FB000C00084FD01C0A8958091C6000895E0E648
:107FC000F0E098E1908380830895EDDF803219F02E
:107FD00088E0F5DFFFCF84E1DECF1F93182FE3DFCA
:107FE0001150E9F7F2DF1F91089580E0E8DFEE27F6
:047FF000FF270994CA
:027FFE00040479
:0400000300007E007B
:00000001FF
