:100000000C9463000C948B000C948B000C948B006C
:100010000C948B000C948B000C948B000C948B0034
:100020000C948B000C948B000C948B000C94680740
:100030000C948B000C948B000C948B000C948B0014
:100040000C94FF050C948B000C94CD050C94A70523
:100050000C948B000C948B000C948B000C948B00F4
:100060000C9449060C948B0000000000240027002B
:100070002A0000000000250028002B0000000000DE
:1000800023002600290004040404040404040202DA
:100090000202020203030303030301020408102007
:1000A0004080010204081020010204081020000012
:1000B0000008000201000003040700000000000027
:1000C00000008808A00B11241FBECFEFD8E0DEBFD0
:1000D000CDBF11E0A0E0B1E0EEEAFCE102C0059086
:1000E0000D92A636B107D9F723E0A6E6B1E001C02C
:1000F0001D92A033B207E1F710E0C2E6D0E004C0E1
:100100002197FE010E94520CC136D107C9F70E9407
:10011000EE080C944A0E0C94000008950895DB013B
:1001200014964D915C9115976D917C91DC01ED9148
:10013000FC910280F381E02D0994AF92BF92CF929F
:10014000DF92EF92FF920F931F93CF93DF936C0197
:100150007B018B01040F151FEB015E01AE18BF0878
:10016000C017D10759F06991D601ED91FC9101902A
:10017000F081E02DC6010995892B79F7C501DF9142
:10018000CF911F910F91FF90EF90DF90CF90BF9094
:10019000AF900895FC01538D448D252F30E0842FBE
:1001A00090E0821B930B541710F0CF96089501979F
:1001B0000895FC01918D828D981761F0A28DAE0F8C
:1001C000BF2FB11D5D968C91928D9F5F9F73928F13
:1001D00090E008958FEF9FEF0895FC01918D828D3F
:1001E000981731F0828DE80FF11D858D90E008950C
:1001F0008FEF9FEF0895FC01918D228D892F90E064
:10020000805C9F4F821B91098F73992708958BE51E
:1002100092E00E94FB0021E0892B09F420E0822F6C
:10022000089580E090E0892B29F00E940701811158
:100230000C9400000895FC01A48DA80FB92FB11DE6
:10024000A35ABF4F2C91848D90E001968F7399270C
:10025000848FA689B7892C93A089B1898C918370EA
:1002600080648C93938D848D981306C00288F389E3
:10027000E02D80818F7D80830895EF92FF920F9310
:100280001F93CF93DF93EC0181E0888F9B8D8C8D42
:1002900098131AC0E889F989808185FF15C09FB736
:1002A000F894EE89FF896083E889F98980818370F9
:1002B000806480839FBF81E090E0DF91CF911F91A8
:1002C0000F91FF90EF900895F62E0B8D10E00F5FC9
:1002D0001F4F0F731127E02E8C8D8E110CC00FB69F
:1002E00007FCFACFE889F989808185FFF5CFCE0137
:1002F0000E941B01F1CFEB8DEC0FFD2FF11DE35A96
:10030000FF4FF0829FB7F8940B8FEA89FB898081B9
:100310008062CFCFCF93DF93EC01888D8823B9F033
:10032000AA89BB89E889F9898C9185FD03C0808100
:1003300086FD0DC00FB607FCF7CF8C9185FFF2CF7D
:10034000808185FFEDCFCE010E941B01E9CFDF91B7
:10035000CF910895833081F028F4813099F0823074
:10036000A9F008958730A9F08830C9F08430B1F43D
:10037000809180008F7D03C0809180008F77809373
:100380008000089584B58F7784BD089584B58F7DEE
:10039000FBCF8091B0008F778093B000089580915B
:1003A000B0008F7DF9CFCF93DF93282F30E0F90194
:1003B000E255FF4F8491F901E656FF4FD491F901C0
:1003C000EA57FF4FC491CC23A1F081110E94AA01EA
:1003D000EC2FF0E0EE0FFF1FE458FF4FA591B49112
:1003E000EC91ED2381E090E009F480E0DF91CF9182
:1003F000089580E090E0FACF1F93CF93DF93282FEA
:1004000030E0F901E255FF4F8491F901E656FF4FC4
:10041000D491F901EA57FF4FC491CC23A9F0162FCC
:1004200081110E94AA01EC2FF0E0EE0FFF1FEE58A1
:10043000FF4FA591B4918FB7F894EC91111108C0BA
:10044000D095DE23DC938FBFDF91CF911F9108956C
:10045000DE2BF8CFCF93DF9390E0FC01E656FF4F01
:1004600024918A579F4FFC0184918823D1F090E01A
:10047000880F991FFC01E859FF4FA591B491FC0129
:10048000EE58FF4FC591D49161110EC09FB7F894FB
:100490008C91E22FE0958E238C932881E223E883D0
:1004A0009FBFDF91CF9108958FB7F894EC91E22B25
:1004B000EC938FBFF6CF3FB7F89480913A029091BA
:1004C0003B02A0913C02B0913D0226B5A89B05C01D
:1004D0002F3F19F00196A11DB11D3FBFBA2FA92FC3
:1004E000982F8827BC01CD01620F711D811D911DC0
:1004F00042E0660F771F881F991F4A95D1F708952C
:100500008F929F92AF92BF92CF92DF92EF92FF9223
:100510004B015C010E945B026B017C010E945B024B
:100520006C197D098E099F09683E7340810591050C
:10053000A8F321E0821A9108A108B10888EEC80E3C
:1005400083E0D81EE11CF11C81149104A104B104C4
:1005500029F7FF90EF90DF90CF90BF90AF909F90E2
:100560008F90089585ED8093BC008091BC0084FD40
:10057000FCCF1092440208952091EE01260F3327FC
:10058000331F21323105ECF420914402FC0190E04C
:1005900080E0243069F082E00895A091EE0121917D
:1005A000AC0142535E4FA40FB52FB11D2C930196A1
:1005B000861798F38091EE01680F6093EE0180E05A
:1005C000089581E008950895E091480280914702DE
:1005D000E81730F4F0E0E255FE4F808190E0089596
:1005E0008FEF9FEF089590914802809147022FEF7F
:1005F0003FEF981748F4E92FF0E0E255FE4F2081D5
:1006000030E09F5F90934802C901089580914702AE
:1006100090914802891B990B0895CF92DF92EF9237
:10062000FF920F931F93CF93DF937C01CB018A013D
:100630002091AD01222389F0EB016B01C40ED51E80
:10064000CC15DD0569F06991D701ED91FC91019020
:10065000F081E02DC7010995F3CF642F0E94BC0201
:10066000C801DF91CF911F910F91FF90EF90DF9024
:10067000CF900895CF93DF931F92CDB7DEB76983F4
:100680002091AD012223F9F020914502203258F04B
:1006900021E030E0FC013383228390E080E00F9082
:1006A000DF91CF91089580914602E82FF0E0E35763
:1006B000FE4F998190838F5F80934602809345021D
:1006C00081E090E0ECCF61E0CE0101960E94BC0297
:1006D000F7CFCF92DF92EF92FF92CF93DF93EC01AF
:1006E000603282E07807CCF5653B710514F064EB6D
:1006F00070E0898128E830E0281B310987FD3395B7
:10070000220F331F220F331F6901330FEE08FF083A
:100710008A8128E532E0281B310987FD3395220FB5
:10072000331F220F331F032E000C440B550B2C19C3
:100730003D094E095F09DB0177FF02C0B0E0A0E090
:100740000E94D60B24EB30E040E050E00E94AC0B5E
:10075000C20ED31EE41EF51EB601E881EC3070F522
:10076000298188E890E0821B910927FD9395880FE5
:10077000991F880F991F681779077CF02A8188E5EF
:1007800092E0821B910927FD9395880F991F880F8E
:10079000991F681779070CF4CB010297880F991FEE
:1007A0004FB7F8942E2F30E0F901EE0FFF1FE20F44
:1007B000F31FE759FE4F928381834FBFDF91CF91A3
:1007C000FF90EF90DF90CF9008951F93CF93DF932A
:1007D000EC01162F88818C3008F04EC061E0812F2B
:1007E0000E942A028881282F30E0F901EE0FFF1FB6
:1007F000E20FF31FE759FE4F1F736081607C612B8E
:10080000608319821A822CE0622F0E94460C829F1C
:10081000B001112430E020E0AB01420F531FFA0178
:10082000EE0FFF1FE40FF51FE759FE4F908196FD75
:1008300016C02F5F3F4F2C30310571F781110FC06B
:100840001092800082E080938100109285001092C7
:100850008400B19A80916F00826080936F00E8817C
:100860008E2F90E0FC01EE0FFF1FE80FF91FE759F4
:10087000FE4F8081806480838881DF91CF911F91BA
:100880000895CF93FC01C48121E02093AD01C09372
:10089000660110924602109245028485682B88EF0B
:1008A00092E00E943A0390914502913208F03FC0D5
:1008B000809144028111FCCF82E08093440281E068
:1008C000809343028FEF8093110210923302909332
:1008D0003202ADE8B1E0E2E1F2E080E098132FC02F
:1008E0001092340280913402CC0FC82BC093340292
:1008F00080914202813039F5109242028091340297
:100900008093BB008091BC0083FDF8CF85EC809381
:10091000BC00809144028230E1F3809111028F3F4C
:1009200031F080911102803211F080911102109209
:100930004602109245021092AD01CF9108952D917B
:1009400021938F5FCBCF85EEE2CF089590E080E0DA
:1009500008950F931F93CF938C01C62F0E944104DB
:100960006C2F6460C8010E9441046C2F6B7FC8012A
:100970000E94410483EC90E00197F1F7CF911F9121
:100980000F9108950F931F93CF93DF938C01D62F70
:10099000C42F607F642B0E94A90480E1D89FB0011E
:1009A00011246C2BC801DF91CF911F910F910C94F2
:1009B000A90440E060E88FE193E00C94C20440E0B9
:1009C00061E08FE193E00E94C2048BE39FE1019715
:1009D000F1F78091280381110C94D904089541E026
:1009E0000E94C20481E090E00895FC018081918121
:1009F000009711F00C94F40C0895FB010190002075
:100A0000E9F73197AF01461B570BDC01ED91FC91E3
:100A10000280F381E02D09944F925F926F927F9252
:100A2000AF92BF92CF92DF92EF92FF920F931F93FC
:100A3000CF93DF93CDB7DEB7A1970FB6F894DEBFA3
:100A40000FBECDBF5C016A017B01F7FE47C0DC0130
:100A5000ED91FC910190F081E02D6DE209958C0102
:100A600022273327A9012C193D094E095F0919A234
:100A7000FE01B1967F019AE0492E512C612C712C18
:100A8000CA01B901A30192010E94150C605DD70152
:100A90006E937D01211531054105510589F790E0DF
:100AA00080E0109721F0BD01C5010E94FD04800F78
:100AB000911FA1960FB6F894DEBF0FBECDBFDF9198
:100AC000CF911F910F91FF90EF90DF90CF90BF904B
:100AD000AF907F906F905F904F900895AB0196011B
:100AE00019A28E010F5D1F4F8AE0C82ED12CE12C78
:100AF000F12CCA01B901A70196010E94150C605D95
:100B0000F80162938F01211531054105510589F7DF
:100B100090E080E0309769F2BF01C5010E94FD04BA
:100B2000C8CFCF93DF93AC01990F660B770B8BE5A2
:100B300092E00E940C05EC0166E371E08BE592E027
:100B40000E94FD048C0F9D1FDF91CF9108951F928D
:100B50000F920FB60F9211242F933F934F935F93F1
:100B60006F937F938F939F93AF93BF93EF93FF9375
:100B70008BE592E00E941B01FF91EF91BF91AF9135
:100B80009F918F917F916F915F914F913F912F91A5
:100B90000F900FBE0F901F9018951F920F920FB6D7
:100BA0000F9211242F938F939F93EF93FF93E091D4
:100BB0006B02F0916C028081E0917102F0917202FF
:100BC00082FD1BC09081809174028F5F8F73209192
:100BD0007502821741F0E0917402F0E0E55AFD4F92
:100BE000958F80937402FF91EF919F918F912F9138
:100BF0000F900FBE0F901F9018958081F4CF1F9219
:100C00000F920FB60F9211242F933F938F939F93C0
:100C1000AF93BF938091360290913702A091380232
:100C2000B09139023091350223E0230F2D3758F56A
:100C30000196A11DB11D2093350280933602909339
:100C40003702A0933802B093390280913A02909112
:100C50003B02A0913C02B0913D020196A11DB11D45
:100C600080933A0290933B02A0933C02B0933D02E2
:100C7000BF91AF919F918F913F912F910F900FBE98
:100C80000F901F90189526E8230F0296A11DB11D05
:100C9000D2CF1F920F920FB60F9211242F933F9332
:100CA0004F935F936F937F938F939F93AF93BF9374
:100CB000EF93FF938091B900887F803609F44AC092
:100CC000F0F5883209F4A7C018F5803109F49BC00B
:100CD000B8F4882309F4F9C0883009F494C0FF916E
:100CE000EF91BF91AF919F918F917F916F915F91A4
:100CF0004F913F912F910F900FBE0F901F9018951D
:100D0000883109F488C0803251F78093110214C0F1
:100D1000803409F49DC040F48033B9F38833F9F688
:100D20008093110285ECB0C0803509F485C0883508
:100D300009F496C0883499F60E94B202D0CF88395F
:100D400009F48CC038F5883729F050F4883611F052
:100D5000803729F683E0809344021092100257C036
:100D6000883809F47BC0803919F0803809F0B7CF92
:100D700080911002803208F071C0E091100281E091
:100D80008E0F809310028091BB00F0E0E051FE4F87
:100D900080833DC0803B39F0E0F4803A09F479C0AB
:100DA000883A09F09CCF84E0809344021092EF01CE
:100DB0001092EE01E0914002F0914102099580917C
:100DC000EE0181110FC081E08093EE011092CE01FF
:100DD00009C0803C09F4A6CF883C09F4A3CF883B26
:100DE00009F07DCFE091EF0181E08E0F8093EF015C
:100DF000F0E0E253FE4F80818093BB009091EF01C1
:100E00008091EE0129C0809134028093BB0085EC73
:100E10008093BC0064CF9091330280913202981786
:100E200058F5E091330281E08E0F80933302F0E0B9
:100E3000EE5EFD4F8081E9CFE091330281E08E0FBD
:100E4000809333028091BB00F0E0EE5EFD4F808323
:100E500090913302809132029817C8F285E8D8CF7A
:100E6000E091330281E08E0F809333028091BB00CA
:100E7000F0E0EE5EFD4F80838091430281115CCFF4
:100E800081E08093420284EA8093BC001092440285
:100E900026CF85EC8093BC00109244028091100212
:100EA000803230F4E0911002F0E0E051FE4F108209
:100EB0006091100270E0E0913E02F0913F0280EFFD
:100EC00091E00995109210020ACF1092110234CFCE
:100ED0001F920F920FB60F9211242F933F934F93AF
:100EE0005F936F937F938F939F93AF93BF93CF93B2
:100EF000DF93EF93FF9380916701C0916801D0E089
:100F000087FF24C0109285001092840080916701B1
:100F10008F5F8093670180916701082E000C990B09
:100F20008C179D0724F4809167018C30C4F1809167
:100F3000840090918500049680349C4908F47AC01E
:100F40008091840090918500049676C0809167011D
:100F5000082E000C990B8C179D07C4F6E0916701D1
:100F60008E2FEE0F990BFC01EE0FFF1FE80FF91FFC
:100F7000E759FE4F808186FFC9CFE09167018E2F30
:100F8000EE0F990BFC01EE0FFF1FE80FF91FE75959
:100F9000FE4F808160E08F730E94FC01B7CF2091EB
:100FA000840030918500E09167018E2FEE0F990B40
:100FB000FC01EE0FFF1FE80FF91FE759FE4F81817B
:100FC0009281820F931F9093890080938800E09113
:100FD00067018E2FEE0F990BFC01EE0FFF1FE80F3C
:100FE000F91FE759FE4F808186FF11C0E09167012C
:100FF0008E2FEE0F990BFC01EE0FFF1FE80FF91F6C
:10100000E759FE4F808161E08F730E94FC01FF91E0
:10101000EF91DF91CF91BF91AF919F918F917F9190
:101020006F915F914F913F912F910F900FBE0F9055
:101030001F90189580E49CE9909389008093880024
:101040008FEF80936701E3CFFC01909168019C30A2
:1010500098F481E0890F809368019083892F90E054
:10106000FC01EE0FFF1FE80FF91FE759FE4F88EB59
:101070009BE09283818308958FEF80830895EF92A0
:10108000FF920F931F93CF93DF93EC017B011982A3
:1010900018821B821A821D821C82FB010190002093
:1010A000E9F731978F01061B170BB8016F5F7F4F70
:1010B00090E080E00E947D0D0097B9F099838883CD
:1010C0001B830A832C813D81232B11F4FC011082A8
:1010D0001D830C83B70188819981DF91CF911F9186
:1010E0000F91FF90EF900C94430E888199810097A7
:1010F00011F00E94F40C198218821D821C821B823E
:101100001A82DF91CF911F910F91FF90EF90089578
:10111000EBE5F2E01382128288EE93E0A0E0B0E00B
:1011200084839583A683B7832AE031E031832083CB
:1011300025EC30E03587248724EC30E0378726879C
:1011400020EC30E0318B208B21EC30E0338B228B94
:1011500022EC30E0358B248B26EC30E0378B268B6D
:10116000118E128E138E148EE8EFF2E0138212822B
:1011700084839583A683B7838CE191E091838083F8
:10118000EFE1F3E0138212828EE291E0918380839B
:10119000118687E2848380E1828782E083871486D8
:1011A0008CE193E00E94240869E371E086E193E01A
:1011B0000E943F0883E193E00E94240863E471E009
:1011C0008DE093E00E943F088AE093E00E942408AB
:1011D0006DE471E084E093E00C943F08789484B56A
:1011E000826084BD84B5816084BD85B5826085BD23
:1011F00085B5816085BD80916E00816080936E00B1
:1012000010928100809181008260809381008091A2
:101210008100816080938100809180008160809353
:1012200080008091B10084608093B1008091B00013
:1012300081608093B00080917A00846080937A000E
:1012400080917A00826080937A0080917A00816038
:1012500080937A0080917A00806880937A0010925F
:10126000C10060E082E00E942A0260E083E00E9408
:101270002A0260E084E00E942A0260E085E00E9489
:101280002A0260E086E00E942A0260E087E00E9475
:101290002A0260E08FE00E942A026BE070E08CE19D
:1012A00093E00E94E50369E070E083E193E00E942F
:1012B000E5036AE070E08AE093E00E94E503E091D4
:1012C0006B02F0916C0282E08083E0916702F09102
:1012D00068021082E0916902F0916A028FEC8083CB
:1012E00010927302E0916F02F091700286E08083A9
:1012F000E0916D02F0916E02808180618083E091C7
:101300006D02F0916E02808188608083E0916D02B1
:10131000F0916E02808180688083E0916D02F0918F
:101320006E0280818F7D808382E00E94D301909342
:101330004C0280934B0284E00E94D30190935202AE
:101340008093510286E00E94D301909358028093CB
:1013500057021092480210924702109246021092D1
:1013600045021092440281E08093430210924202AF
:1013700061E082E10E94FC0161E083E10E94FC01E6
:101380008091B9008E7F8093B9008091B9008D7FE4
:101390008093B90088E48093B80085E48093BC0012
:1013A0008DE890E090934102809340028EE890E0B7
:1013B00090933F0280933E021092240380912A036F
:1013C000823018F098E0909324038093270362E31F
:1013D00070E080E090E00E94800260912B038FE13A
:1013E00093E00E94410468EE73E080E090E00E9488
:1013F000800260E38FE193E00E94A904CBE4D6E48D
:10140000CE010197F1F760E38FE193E00E94A90418
:101410002197F1F760E38FE193E00E94A90483E54F
:1014200092E00197F1F760E28FE193E00E94A90456
:1014300060912403606240E08FE193E00E94C20467
:1014400084E08093250340E06CE08FE193E00E940C
:10145000C2040E94DF0482E08093260340E066E03D
:101460008FE193E00E94C20440E062E08FE193E0EC
:101470000E94C2048BE39FE10197F1F788E080931B
:101480002B0360E08FE193E00E9441040E94D904A5
:1014900067E571E08FE193E00E94FD0480E0E82EB3
:1014A00080E0F82EC1E0D0E003EB10E082E00E9483
:1014B000D3016C0190934E0280934D0280914B02B8
:1014C00090914C02C816D90609F445C083E00E94E9
:1014D000D3012091490230914A02C816D90609F475
:1014E00008C1243B310524F010934A0200934902BD
:1014F0008091490290914A02019690934A0280930A
:10150000490266E173E08BE592E00E948F008091D2
:10151000490290914A020E9491056091490270919E
:101520004A028CE193E00E9469030E94DF0466E1B5
:1015300073E08FE193E00E948F0040914902509147
:101540004A02052E000C660B770B8FE193E00E9498
:101550000C050E94D90480914D0290914E02909307
:101560004C0280934B0284E00E94D3016C01909363
:101570005402809353028091510290915202C816F6
:10158000D90609F445C085E00E94D30120914F029D
:1015900030915002C816D90609F4B8C0243B310571
:1015A00024F01093500200934F0280914F029091CB
:1015B000500201969093500280934F026DE073E0C9
:1015C0008BE592E00E948F0080914F029091500233
:1015D0000E94910560914F027091500283E193E067
:1015E0000E9469030E94DF046DE073E08FE193E0E5
:1015F0000E948F0040914F0250915002052E000C26
:10160000660B770B8FE193E00E940C050E94D904D2
:101610008091530290915402909352028093510210
:1016200086E00E94D3016C0190935A028093590284
:101630008091570290915802C816D90609F445C006
:1016400087E00E94D3012091550230915602C816BE
:10165000D90609F468C0243B310524F010935602E2
:1016600000935502809155029091560201969093F5
:1016700056028093550264E073E08BE592E00E948D
:101680008F0080915502909156020E9491056091C1
:101690005502709156028AE093E00E9469030E940D
:1016A000DF0464E073E08FE193E00E948F004091DB
:1016B000550250915602052E000C660B770B8FE1F8
:1016C00093E00E940C050E94D904809159029091E8
:1016D0005A029093580280935702E114F10409F4DE
:1016E000E5CE0E940701882309F4E0CE0E940000A5
:1016F000DDCE1216130624F0D0934A02C09349029D
:101700008091490290914A020197F7CE1216130672
:1017100024F0D0935002C0934F0280914F029091D9
:101720005002019747CF1216130624F0D0935602A9
:10173000C09355028091550290915602019797CF20
:1017400084E093E00E94F5048DE093E00E94F504AC
:1017500086E193E00C94F504052E97FB1EF40094AB
:101760000E94C30B57FD07D00E94150C07FC03D045
:101770004EF40C94C30B50954095309521953F4FF6
:101780004F4F5F4F089590958095709561957F4F6D
:101790008F4F9F4F08950E94370CA59F900DB49FC7
:1017A000900DA49F800D911D11240895B7FF0C94F6
:1017B000CB0B0E94CB0B821B930B08952F923F9271
:1017C0004F925F926F927F928F929F92AF92BF9251
:1017D000CF92DF92EF92FF920F931F93CF93DF93FD
:1017E000CDB7DEB7CA1BDB0B0FB6F894DEBF0FBE5A
:1017F000CDBF09942A88398848885F846E847D84A7
:101800008C849B84AA84B984C884DF80EE80FD80A8
:101810000C811B81AA81B981CE0FD11D0FB6F8941E
:10182000DEBF0FBECDBFED010895A1E21A2EAA1BA7
:10183000BB1BFD010DC0AA1FBB1FEE1FFF1FA21780
:10184000B307E407F50720F0A21BB30BE40BF50B7D
:10185000661F771F881F991F1A9469F76095709506
:10186000809590959B01AC01BD01CF010895A29F89
:10187000B001B39FC001A39F700D811D1124911D64
:10188000B29F700D811D1124911D0895991B79E05F
:1018900004C0991F961708F0961B881F7A95C9F700
:1018A00080950895EE0FFF1F0590F491E02D0994A7
:1018B0000F931F93CF93DF938230910510F482E052
:1018C00090E0E0912E03F0912F0330E020E0B0E0B3
:1018D000A0E0309799F42115310509F44AC0281B7E
:1018E000390B24303105D8F58A819B81611571054A
:1018F00089F1FB0193838283FE0111C040815181F4
:101900000281138148175907E0F04817590799F4E5
:10191000109761F012960C93129713961C933296BF
:10192000CF01DF91CF911F910F91089500932E0366
:1019300010932F03F4CF2115310551F042175307AF
:1019400038F0A901DB019A01BD01DF01F801C1CF27
:10195000EF01F9CF90932F0380932E03CDCFFE019B
:10196000E20FF31F81939193225031093983288329
:10197000D7CF20912C0330912D03232B41F42091BC
:1019800002013091030130932D0320932C03209109
:101990000001309101012115310541F42DB73EB709
:1019A0004091040150910501241B350BE0912C035B
:1019B000F0912D03E217F307A0F42E1B3F0B28171D
:1019C000390778F0AC014E5F5F4F2417350748F0B8
:1019D0004E0F5F1F50932D0340932C0381939193DF
:1019E0009FCFF0E0E0E09CCFCF93DF930097E9F04A
:1019F000FC01329713821282A0912E03B0912F0323
:101A0000ED0130E020E01097A1F420813181820FB8
:101A1000931F20912C0330912D032817390709F0CB
:101A200061C0F0932D03E0932C03DF91CF910895D3
:101A3000EA01CE17DF07E8F54A815B819E01411577
:101A40005105B1F7E901FB83EA8349915991C40F2C
:101A5000D51FEC17FD0761F4808191810296840FF8
:101A6000951FE90199838883828193819B838A836F
:101A7000F0E0E0E012968D919C9113970097B9F5F4
:101A80002D913C911197CD010296820F931F2091C9
:101A90002C0330912D032817390739F6309751F56B
:101AA00010922F0310922E03B0932D03A0932C03BA
:101AB000BCCFD383C28340815181840F951FC81747
:101AC000D90761F44E5F5F4F88819981480F591F94
:101AD000518340838A819B819383828321153105C1
:101AE00009F0B0CFF0932F03E0932E039ECFFD01BA
:101AF000DC01C0CF13821282D7CFB0E0A0E0E3E8D0
:101B0000FDE00C94E00B8C01009751F4CB010E9496
:101B1000580C8C01C801CDB7DEB7E0E10C94FC0B8A
:101B2000FC01E60FF71F9C0122503109E217F30771
:101B300008F49DC0D901CD91DC911197C617D70744
:101B400098F0C530D10530F3CE010497861797077A
:101B500008F3C61BD70B2297C193D1936D937C9347
:101B6000CF010E94F40CD6CF5B01AC1ABD0A4C0128
:101B70008C0E9D1EA0912E03B0912F03512C412C51
:101B8000F12CE12C109731F580912C0390912D03CD
:101B90008815990509F05CC04616570608F058C02C
:101BA0008091000190910101009741F48DB79EB79B
:101BB0004091040150910501841B950BE817F9072A
:101BC00008F055C0F0932D03E0932C03F9017183C5
:101BD0006083A0CF8D919C91119712966C90129773
:101BE00013967C901397A815B90559F56C0142E03E
:101BF000C40ED11CCA14DB0420F1AC014A195B09E4
:101C0000DA011296159780F06282738251834083C5
:101C1000D9016D937C93E114F10471F0D70113960F
:101C2000FC93EE93129776CF22968C0F9D1FF901AD
:101C300091838083F301EFCFF0932F03E0932E0382
:101C400069CF4816590608F42C017D01D3019ACFBB
:101C5000CB010E94580C7C01009749F0AE01B801FD
:101C60000E943A0EC8010E94F40C870153CF10E085
:101C700000E050CFFB01DC0102C001900D92415009
:101C80005040D8F70895FB01DC0101900D9200202F
:101C9000E1F7089510E0C2E6D0E004C0FE010E9422
:0E1CA000520C2196C336D107C9F7F894FFCF36
:101CAE00000030038000000000003D019D00CA00CE
:101CBE008A01FB00D900ED00000000003A030D037D
:101CCE00A604E3020603F302E40200000000EF04A0
:101CDE009D00A604A5040D0A00534552564F203010
:101CEE00203A00534552564F2031203A0053455268
:101CFE00564F2032203A004175746F6D61696C2029
:061D0E00526561647900DA
:107E0000112484B714BE81FFF0D085E080938100F7
:107E100082E08093C00088E18093C10086E0809377
:107E2000C20080E18093C4008EE0C9D0259A86E02C
:107E300020E33CEF91E0309385002093840096BBD3
:107E4000B09BFECF1D9AA8958150A9F7CC24DD24C4
:107E500088248394B5E0AB2EA1E19A2EF3E0BF2EE7
:107E6000A2D0813461F49FD0082FAFD0023811F036
:107E7000013811F484E001C083E08DD089C08234E0
:107E800011F484E103C0853419F485E0A6D080C0E4
:107E9000853579F488D0E82EFF2485D0082F10E0AE
:107EA000102F00270E291F29000F111F8ED06801E7
:107EB0006FC0863521F484E090D080E0DECF843638
:107EC00009F040C070D06FD0082F6DD080E0C81688
:107ED00080E7D80618F4F601B7BEE895C0E0D1E017
:107EE00062D089930C17E1F7F0E0CF16F0E7DF06D8
:107EF00018F0F601B7BEE89568D007B600FCFDCFD4
:107F0000A601A0E0B1E02C9130E011968C91119780
:107F100090E0982F8827822B932B1296FA010C0160
:107F200087BEE89511244E5F5F4FF1E0A038BF0790
:107F300051F7F601A7BEE89507B600FCFDCF97BE46
:107F4000E89526C08437B1F42ED02DD0F82E2BD052
:107F50003CD0F601EF2C8F010F5F1F4F84911BD097
:107F6000EA94F801C1F70894C11CD11CFA94CF0C13
:107F7000D11C0EC0853739F428D08EE10CD085E9AC
:107F80000AD08FE07ACF813511F488E018D01DD067
:107F900080E101D065CF982F8091C00085FFFCCF94
:107FA0009093C60008958091C00087FFFCCF809118
:107FB000C00084FD01C0A8958091C6000895E0E648
:107FC000F0E098E1908380830895EDDF803219F02E
:107FD00088E0F5DFFFCF84E1DECF1F93182FE3DFCA
:107FE0001150E9F7F2DF1F91089580E0E8DFEE27F6
:047FF000FF270994CA
:027FFE00040479
:0400000300007E007B
:00000001FF
