:100000000C9462000C947F000C947F000C947F0091
:100010000C947F000C947F000C947F000C940E02D3
:100020000C947F000C947F000C947F000C947F0054
:100030000C947F000C947F000C947F000C947F0044
:100040000C94B2020C947F000C947F000C947F00FF
:100050000C947F000C947F000C947F000C947F0024
:100060000C947F000C947F00000000002300260009
:10007000290000000008000201000003040700003E
:1000800000000000000000000000240027002A00FB
:10009000010204081020408001020408102001021F
:1000A0000408102000000000250028002B00040494
:1000B0000404040404040202020202020303030310
:1000C0000303020011241FBECFEFD8E0DEBFCDBF77
:1000D00011E0A0E0B1E0EEE0F8E002C005900D9282
:1000E000A230B107D9F721E0A2E0B1E001C01D9232
:1000F000AC31B207E1F70E94FC020C9405040C94A9
:1001000000008F929F92AF92BF92CF92DF92EF92B8
:10011000FF920F931F93CF938C0180910001883041
:1001200071F08F3F91F0CF911F910F91FF90EF9061
:10013000DF90CF90BF90AF909F908F900895E2ECAA
:10014000F0E0C491C7FDEFCF48C088E08093000184
:10015000E2ECF0E0C491CF3F31F3C13009F490C03C
:1001600020F1C23079F71092B0001092B100809166
:10017000B00082608093B0008091B1008160809374
:10018000B100E6EBF0E0E491F0E0EE0FFF1FEC557C
:10019000FF4F8591949190930D0180930C01E8E9B4
:1001A000F0E0E491E0930B0118C014BC15BC84B5D9
:1001B000826084BD85B5816085BDE6EBF0E0E491A9
:1001C000F0E0EE0FFF1FEC55FF4F85919491E8E9A9
:1001D000F0E0E491E0930F01C0E0E8E9F0E0249161
:1001E000E6EBF0E08491882399F090E0880F991F66
:1001F000FC01EA57FF4FA591B491FC01EC55FF4F6C
:10020000859194918FB7F894EC91E22BEC938FBF8A
:100210004801B12CA12C8C2F8D7F09F04FC0C2302A
:10022000C1F464E274EF80E090E0A50198010E94BF
:10023000D70369017A0181E0C81AD108E108F10801
:1002400095E08FEFC816D104E104F10409F00CF435
:1002500090C062E17AE780E090E0A50194010E94FD
:10026000D70369017A0181E0C81AD108E108F108D1
:1002700096E0C1117EC085B5887F846085BD35C09C
:10028000109280001092810080918100886080939C
:10029000810080918100816080938100E6EBF0E035
:1002A000E491F0E0EE0FFF1FEC55FF4F8591949124
:1002B000E8E9F0E0E491E0930E018FCF60E072E1B5
:1002C0008AE790E0A50198010E94D70369017A01AD
:1002D00081E0C81AD108E108F108C13031F48091F9
:1002E0008100887F8160809381009801220F331FF5
:1002F000A4E6B0E00E94F60328EE33E040E050E0D0
:100300000E94B503C13099F0C23019F1C1110BCF71
:10031000C7BC209318013093190140931A015093E0
:100320001B0180916E00826080936E00FCCED092A3
:100330008900C092880020931401309315014093E6
:1003400016015093170180916F00826080936F00B7
:10035000EACEC092B3002093100130931101409374
:10036000120150931301809170008260809370009D
:10037000DACE8091B100887F892B8093B100B5CF10
:10038000833081F028F4813099F08230A9F008950B
:100390008730A9F08830C9F08430B1F480918000B2
:1003A0008F7D03C0809180008F77809380000895B7
:1003B00084B58F7784BD089584B58F7DFBCF809100
:1003C000B0008F778093B00008958091B0008F7D4A
:1003D000F9CF3FB7F8948091070190910801A0915F
:1003E0000901B0910A0126B5A89B05C02F3F19F05D
:1003F0000196A11DB11D3FBFBA2FA92F982F8827A5
:10040000BC01CD01620F711D811D911D42E0660F7F
:10041000771F881F991F4A95D1F708951F920F9251
:100420000FB60F9211242F933F934F935F936F93C7
:100430007F938F939F93AF93BF93CF93DF93EF936C
:10044000FF938091100190911101A0911201B09140
:100450001301892B8A2B8B2BE1F190910B01E091F9
:100460000C01F0910D01808189278083809110011A
:1004700090911101A0911201B09113011816190663
:100480001A061B069CF48091100190911101A09115
:100490001201B09113010197A109B10980931001D4
:1004A00090931101A0931201B0931301FF91EF916A
:1004B000DF91CF91BF91AF919F918F917F916F917C
:1004C0005F914F913F912F910F900FBE0F901F9012
:1004D000189520910001E2ECF0E0E4918FEF809319
:1004E0000001E13041F120F1E23059F130E0F90151
:1004F000EE58FF4F8491F901E057FF4FD491F90175
:10050000E255FF4FC491CC2389F281110E94C001B2
:10051000EC2FF0E0EE0FFF1FEC55FF4FA591B491CB
:100520008FB7F894EC91D095DE23DC938FBFBECFCC
:1005300010926E00DBCF80916F008D7F80936F00F3
:10054000D5CF809170008D7F8093700081E0809383
:10055000B0008091B100887F84608093B1001092D8
:10056000B300C4CF1F920F920FB60F9211242F9396
:100570003F938F939F93AF93BF938091030190918B
:100580000401A0910501B09106013091020123E020
:10059000230F2D3758F50196A11DB11D209302019F
:1005A0008093030190930401A0930501B093060189
:1005B0008091070190910801A0910901B0910A0171
:1005C0000196A11DB11D8093070190930801A0938E
:1005D0000901B0930A01BF91AF919F918F913F9113
:1005E0002F910F900FBE0F901F90189526E8230FA4
:1005F0000296A11DB11DD2CF789484B5826084BDCE
:1006000084B5816084BD85B5826085BD85B5816016
:1006100085BD80916E00816080936E001092810094
:10062000809181008260809381008091810081604F
:100630008093810080918000816080938000809110
:10064000B10084608093B1008091B000816080939C
:10065000B00080917A00846080937A0080917A0063
:10066000826080937A0080917A00816080937A0022
:1006700080917A00806880937A001092C100C2E96C
:10068000D0E0FE01249100EB10E0F8018491882372
:10069000C9F090E0880F991FFC01EA57FF4FA59120
:1006A000B491FC01EC55FF4F459154919FB7F894DC
:1006B0003C91822F809583238C93FA018081282B93
:1006C00020839FBF24E7822E20E0922E30E0A32ECD
:1006D00030E0B32EF4018491FE01E490F801F4902F
:1006E000F1102DC088EC90E00E9481000E94E90189
:1006F0002B013C019AEFC92ED12CE12CF12C0E9448
:10070000E9016419750986099709683E73408105F6
:100710009105A8F3F1E0CF1AD108E108F10828EE1D
:10072000420E23E0521E611C711CC114D104E1046D
:10073000F10429F780E991E00E9481000FC0811146
:100740000E94C001EF2DF0E0EE0FFF1FE859FF4FB0
:10075000A591B4918C91E82209F4C4CFA114B104FD
:1007600009F4B8CF0E940000B5CFA1E21A2EAA1B4F
:10077000BB1BFD010DC0AA1FBB1FEE1FFF1FA21751
:10078000B307E407F50720F0A21BB30BE40BF50B4E
:10079000661F771F881F991F1A9469F760957095D7
:1007A000809590959B01AC01BD01CF010895052E68
:1007B00097FB1EF400940E94EE0357FD07D00E94A1
:1007C000B50307FC03D04EF40C94EE03509540950E
:1007D000309521953F4F4F4F5F4F089590958095ED
:1007E000709561957F4F8F4F9F4F0895A29FB001E5
:1007F000B39FC001A39F700D811D1124911DB29F55
:0E080000700D811D1124911D0895F894FFCFF5
:02080E00FF00E9
:107E0000112484B714BE81FFF0D085E080938100F7
:107E100082E08093C00088E18093C10086E0809377
:107E2000C20080E18093C4008EE0C9D0259A86E02C
:107E300020E33CEF91E0309385002093840096BBD3
:107E4000B09BFECF1D9AA8958150A9F7CC24DD24C4
:107E500088248394B5E0AB2EA1E19A2EF3E0BF2EE7
:107E6000A2D0813461F49FD0082FAFD0023811F036
:107E7000013811F484E001C083E08DD089C08234E0
:107E800011F484E103C0853419F485E0A6D080C0E4
:107E9000853579F488D0E82EFF2485D0082F10E0AE
:107EA000102F00270E291F29000F111F8ED06801E7
:107EB0006FC0863521F484E090D080E0DECF843638
:107EC00009F040C070D06FD0082F6DD080E0C81688
:107ED00080E7D80618F4F601B7BEE895C0E0D1E017
:107EE00062D089930C17E1F7F0E0CF16F0E7DF06D8
:107EF00018F0F601B7BEE89568D007B600FCFDCFD4
:107F0000A601A0E0B1E02C9130E011968C91119780
:107F100090E0982F8827822B932B1296FA010C0160
:107F200087BEE89511244E5F5F4FF1E0A038BF0790
:107F300051F7F601A7BEE89507B600FCFDCF97BE46
:107F4000E89526C08437B1F42ED02DD0F82E2BD052
:107F50003CD0F601EF2C8F010F5F1F4F84911BD097
:107F6000EA94F801C1F70894C11CD11CFA94CF0C13
:107F7000D11C0EC0853739F428D08EE10CD085E9AC
:107F80000AD08FE07ACF813511F488E018D01DD067
:107F900080E101D065CF982F8091C00085FFFCCF94
:107FA0009093C60008958091C00087FFFCCF809118
:107FB000C00084FD01C0A8958091C6000895E0E648
:107FC000F0E098E1908380830895EDDF803219F02E
:107FD00088E0F5DFFFCF84E1DECF1F93182FE3DFCA
:107FE0001150E9F7F2DF1F91089580E0E8DFEE27F6
:047FF000FF270994CA
:027FFE00040479
:0400000300007E007B
:00000001FF
